:020000040800F2
:10000000000002209D490008ED490008ED49000864
:10001000ED490008ED490008ED4900080000000026
:10002000000000000000000000000000ED49000892
:10003000ED49000800000000ED49000855160008D1
:10004000ED490008ED490008ED490008ED490008B8
:10005000ED490008ED490008B5020008ED49000827
:10006000ED490008ED490008ED490008ED49000898
:10007000ED490008ED49000811050008ED490008A8
:10008000ED490008ED490008ED490008ED49000878
:10009000AD150008ED490008ED490008E10200082F
:1000A000ED490008ED490008ED490008ED49000858
:1000B000ED490008ED490008ED490008ED49000848
:1000C000ED490008ED490008ED490008ED49000838
:1000D000ED490008ED490008ED490008ED49000828
:1000E000ED490008ED490008ED490008ED49000818
:1000F000ED490008ED490008ED490008ED49000808
:10010000ED490008ED490008ED490008ED490008F7
:10011000ED490008ED490008CD040008ED4900084C
:10012000ED490008ED490008ED490008ED490008D7
:10013000ED4900080000000000000000ED49000843
:10014000C5150008ED490008ED490008ED49000813
:10015000ED490008ED490008ED490008ED490008A7
:10016000ED490008ED490008ED490008ED49000897
:10017000ED490008ED490008000000000000000003
:08018000ED490008ED490008FB
:1001900010B5054C237833B9044B13B10448AFF3C1
:1001A00000800123237010BDD0000020000000005B
:1001B000E85A000808B5034B1BB103490348AFF3E5
:1001C000008008BD00000000D4000020E85A0008AC
:1001D00001F0FF01102A2BDB10F0070F08D010F8F8
:1001E000013B013A8B422DD010F0070F42B3F6D1FC
:1001F000F0B441EA012141EA014122F007047FF015
:1002000000070023F0E80256083C85EA010586EA6B
:10021000010685FA47F5A3FA87F586FA47F6A5FAA7
:1002200087F68EB9EED1F0BC01F0FF0102F00702B3
:1002300032B110F8013B013A83EA010313B1F8D15E
:100240000020704701387047002D06BF354603383F
:10025000073815F0010F07D1013015F4807F02BF78
:10026000013015F4C03F0130F0BC0138704700BFC9
:100270007047000010B50B4B012283F87C200A4C1C
:10028000E26CA3F87E2001F03DFB03466065400070
:10029000064AB2EB430F00DB054801F03FFC0020AB
:1002A00010BD00BFA0020020EC0000203F420F0064
:1002B00040420F0008B5012000F07EFE00B908BDE5
:1002C000012000F083FE044B01221A704FF400411C
:1002D000024800F0D4FEF2E76D0100200004024065
:1002E00008B5202000F068FE00B908BD202000F00D
:1002F0006DFE044B01221A704FF48041024800F059
:10030000BEFEF2E76C0100200004024008B503487D
:1003100001F0CEFC00F0E6F908BD00BF00000020AF
:100320001D4A11681D4B596051681972117A597232
:10033000517A9972917AD972D17A1973117B597362
:10034000517B9973917BD973D17B1974117C59744A
:10035000517C9974927CDA74114A11685961516820
:100360001976117A5976517A9976917AD976D17A25
:100370001977117B5977517B9977917BD977D17B0D
:1003800083F82010117C83F82110517C83F822100F
:10039000927C83F823207047CC010020EC000020E1
:1003A000F4010020274B596A274A116093F828105E
:1003B000516093F82910117293F82A10517293F832
:1003C0002B10917293F82C10D17293F82D10117399
:1003D00093F82E10517393F82F10917393F83010F7
:1003E000D17393F83110117493F83210517493F85B
:1003F00033109174596B154A116093F8381051609D
:1004000093F83910117293F83A10517293F83B1027
:10041000917293F83C10D17293F83D10117393F8D8
:100420003E10517393F83F10917393F84010D173BD
:1004300093F84110117493F84210517493F84330BB
:1004400093747047EC000020E001002008020020B7
:1004500008B5174B1B68174AA2FB03239B09013BF6
:10046000B3F1807F0AD24FF0E0225361124BF021AA
:1004700083F82310002393610723136101F0F2F83E
:1004800001F0ACF801F07EF801F086F8FFF73EFFCE
:1004900000210A4800F0B5FB01F002FC08490748BA
:1004A00000F0EEFA0749084800F0EAFAF4E700BF66
:1004B00064000020D34D621000ED00E000640040B5
:1004C000E0010020080200200068004008B501217A
:1004D000044800F005FF00B908BD0121014800F003
:1004E0000BFFF9E70010004043090B7042EAC0001F
:1004F0004870032A02D0022A05D07047FF238B7070
:1005000081F825307047FF2381F82530F5E700009A
:1005100008B50749074800F0BDFC00B908BD04490B
:10052000044800F0E7FC044B00221A70F6E700BF15
:1005300000800018586002406E01002010B590B095
:1005400001214FF4001000F0B9FD244800F06EFBCB
:10055000234800F06BFB214800F05CFC0028FAD136
:100560001F4800F057FC0028FAD101A800F036FC23
:100570002623059300240C940D940E9409944FF4B3
:10058000806307930A94174B02930F940894069480
:100590004FF400330B93019440230493124B1B68D8
:1005A000039301A90D4800F0EDFB019404940F4B57
:1005B0001B68039301A90A4800F0E4FB0E238DF8A1
:1005C00000308DF801408DF8024001238DF8033092
:1005D000684600F0E9F810B010BD00BF706002403E
:1005E000586002400C3800405C0000205800002099
:1005F00038B5104C01221021204600F02DFC0E4D84
:1006000001221146284600F03BFE01220221284625
:1006100000F036FE012004F077F90121074800F0D0
:10062000EEFB0121204600F0EAFB054B01221A7087
:1006300038BD00BF58600240003800407060024082
:100640006E01002038B5012004F068F90F4D104903
:10065000284600F0E7FB0F4C4FF0C051204600F059
:10066000E1FB0021284600F0CAFB0021204600F0F3
:10067000C6FB094C00220121204600F001FE0022A9
:100680000221204600F0FCFD38BD00BF7060024032
:1006900020000020586002400038004008B52322A6
:1006A0000021074B186804F005FA0322054B19686E
:1006B0004FF4B050FFF718FFFFF79AFF08BD00BFD7
:1006C000540000205C00002008B50422044B196887
:1006D0004FF4D050FFF708FFFFF78AFF08BD00BFB7
:1006E0005C00002008B5FFF729FF04F0D3F808BD2F
:1006F00008B5FFF7A7FF074B1B681A78064BC3F82E
:10070000E420064AD3F8AC10054B186803F036FF16
:1007100008BD00BF58000020A0020020900F00205C
:100720005000002008B5FFF7B9FF044B1B78DBB27F
:10073000012BFAD0FFF7DCFF08BD00BF6E010020DF
:1007400008B5FFF77FFF034B1B681A78024BC3F80D
:10075000E42008BD58000020A002002008B5094A86
:10076000094BD3F8B010094B186803F0CBFEFFF724
:10077000ABFF074B1B78DBB2012BFAD0FFF7E0FF92
:1007800008BD00BFEC100020A00200205400002093
:100790006E01002040F0BF6040F40030014BD86093
:1007A000704700BF00ED00E0C378FBB1154BDB687C
:1007B000DB43C3F30222C2F10401C9B20F23134188
:1007C00042788A40D2B281780B4013431B01DBB2DE
:1007D00002780D490A4482F80033037803F01F00C1
:1007E0005B090122824041F823207047037803F01F
:1007F0001F015B0901228A402033034941F823206D
:10080000704700BF00ED00E000E100E008B50C4BD0
:1008100098420AD001214FF0806000F079FC00215D
:100820004FF0806000F074FC08BD01214FF00070B3
:1008300000F06EFC00214FF0007000F069FCF3E75F
:1008400000640040036823F002030360036843F080
:10085000010303600023426812F0010F05D14FF637
:10086000FF72934201D00133F5E7436813F0010FA3
:100870006BD08B79012B3BD0036823F0800303609E
:10088000CB79012B39D0036823F0400303600B7A46
:10089000012B37D0036823F0200303604B7A012B30
:1008A00035D0036823F0100303608B7A012B33D01B
:1008B000036823F008030360CB7A012B31D003686F
:1008C00023F0040303608A78CB781B0643EA827323
:1008D0000A7943EA02434A7943EA02530A88013A11
:1008E0001343C361036823F00103036000231EE088
:1008F000036843F080030360C2E7036843F04003EA
:100900000360C4E7036843F020030360C6E703689D
:1009100043F010030360C8E7036843F00803036073
:10092000CAE7036843F004030360CCE7013342687D
:1009300012F0010F03D04FF6FF729342F6D14368D5
:1009400013F0010F03D000207047002070470120F2
:100950007047000010B5837A012202FA03F33F4A80
:10096000D2F8001241F00101C2F80012D2F81C12B4
:100970006FEA030C21EA0301C2F81C12027BD2B910
:10098000364AD2F80C120CEA0101C2F80C12B0F887
:1009900006E04488817A44EA0E44483142F8314006
:1009A0008488018890F80AE041EA04410EF1480E7B
:1009B00002EBCE025160027B012A20D0C27A002ACB
:1009C00037D12649D1F804220CEA0202C1F80422E8
:1009D000028932B92149D1F814220CEA0202C1F885
:1009E00014220289012A2BD0427B012A2FD01B4AD4
:1009F000D2F8003223F00103C2F8003210BD174ACA
:100A0000D2F80C121943C2F80C12B0F800E0448876
:100A1000817A44EA0E44483142F83140B0F804E0AB
:100A2000C188847A41EA0E41483402EBC402516025
:100A3000C4E70A49D1F804221A43C1F80422C7E7DF
:100A40000649D1F814221A43C1F81422CCE703490D
:100A5000D1F81C221343C1F81C32C8E700640040DF
:100A600000238371C371037243728372C3728370F4
:100A7000C370032303710223437101230380704772
:100A80000346826812F0806F09D1826812F0006F0D
:100A90004FD1826812F0805F5BD0022000E000201E
:100AA00070B5864600F1180212019C5804F001044A
:100AB0009C500A7A002A3ED100F1180212019C587B
:100AC0004D7A0E6845EA46552C439C508A7A02F0CE
:100AD0000F028A720EF118024FEA021C03EB021297
:100AE000546824F00F04546054688D7A2C43546089
:100AF0008C7B4A7B120442EA04620C7B42EA0422A9
:100B0000CC7A224303EB0E1ECEF888218C7C4A7CE3
:100B1000120442EA04620C7C42EA0422C97B0A43C2
:100B2000CEF88C2153F80C2042F0010243F80C203F
:100B300070BD0120B4E700F1180424011D594E686E
:100B400042EAC60291F809C042EA0C022A431A514D
:100B5000BCE70420704710B401F11B031B01C3580C
:100B600003F004031372002B3FD101F11B031B019F
:100B7000C3585B0D136001F11B031C0100EB031351
:100B8000045904F0020454725C6804F00F04947277
:100B90005B681B0AD37400EB0113D3F8B841D4721D
:100BA000D3F8B841240A1473D3F8B841240C547311
:100BB000D3F8B841240E9473D3F8BC41D473D3F85E
:100BC000BC41240A1474D3F8BC414FEA144C82F897
:100BD00011C0D3F8BC311B0E937469B9C36843F0DC
:100BE0002003C3605DF8044B704701F11B031B0138
:100BF000C358DB085360BEE7036943F02003036179
:100C0000F0E721B9C36843F02003C360704703696C
:100C100043F02003036170471AB1436919434161EE
:100C20007047436923EA010141617047036823F07B
:100C3000010303600023036043608360C3600361BA
:100C4000212343613C4B98422DD03C4B98422ED0FF
:100C50003B4B984230D03B4B984232D03A4B984273
:100C600034D03A4B984235D0394B984236D0394B34
:100C7000984237D0384B984239D0384B98423AD0C6
:100C8000374B98423CD0374B98423ED0364B984237
:100C900040D0364B984241D0354B984242D0354BEC
:100CA000984243D07047103B3D229A607047283BE2
:100CB0004FF474629A607047403B4FF474129A602C
:100CC0007047583B4FF074629A607047703B2A4AF5
:100CD000DA607047883B294ADA607047A03B284AAF
:100CE000DA607047B83B4FF03D52DA607047103B16
:100CF0003D229A607047283B4FF474629A607047B7
:100D0000403B4FF474129A607047583B4FF0746246
:100D10009A607047703B184ADA607047883B174A00
:100D2000DA607047A03B164ADA607047B83B4FF074
:100D30003D52DA60B6E700BF106002402860024012
:100D4000406002405860024070600240886002408B
:100D5000A0600240B8600240106402402864024073
:100D6000406402405864024070640240886402405B
:100D7000A0640240B86402403D000020400F002003
:100D800000003D2010B40368134A1A400B68CC6879
:100D900023434C6923438C692343CC6923430C6A66
:100DA00023434C6A23438C6A23434C6B23438C6B51
:100DB000234313430360426922F00702CB6A0C6BA2
:100DC0002343134343610B6943604B6883608B6823
:100DD000C3605DF8044B70473F801CF00023036044
:100DE00043608360C360036143618361C3610362E5
:100DF00043628362C362036343638363704721B1C9
:100E0000036843F0010303607047036823F00103A4
:100E100003607047036813F0010F01D00120704791
:100E2000002070470A4B98420AD8A3F20F4311F0F2
:100E3000005F07D021F0F02121F08211D9607047C6
:100E4000044BF4E721F0F02121F082119960704702
:100E50000F6402400064024011F0800F04D062B1C0
:100E6000436943F080034361802911D052B1036884
:100E700001F01E01194301607047436923F08003AC
:100E80004361F1E7036801F01E0123EA01010160FB
:100E90007047000010B4144B984217D8134C21F03F
:100EA000F02323F0C3139BB1CA0A02F01E030268A9
:100EB0001A4011F0005F0FD0636823F0F02323F095
:100EC000821319420AD06AB9002008E0084CE6E70C
:100ED000426902F08002ECE72368EEE700205DF84B
:100EE000044B70470120FAE70F64024000600240A3
:100EF000006402400A4B98420AD8A3F20F4311F053
:100F0000005F07D021F0F02121F08211D9607047F5
:100F1000044BF4E721F0F02121F082119960704731
:100F20000F640240006402408379002B36D010B475
:100F3000204B1A68016822EA01021A605A680168A7
:100F400022EA01025A60027902F1804202F59E32E1
:100F500011680468214311609A68016822EA01025D
:100F60009A60DA68016822EA0102DA604379102B9C
:100F70000AD003F1804303F59E331A6801680A43DF
:100F80001A605DF8044B70470A4B9A6801680A437F
:100F90009A60DA6801680A43DA60F2E7037903F1DC
:100FA000804303F59E331A68016822EA01021A6041
:100FB000704700BF003C0140034B5B69034201D016
:100FC0000120704700207047003C0140014B5861F0
:100FD000704700BF003C014000230F2B4ED830B5B6
:100FE00016E0C2681FFA83FE4FEA4E044FF0030E6C
:100FF0000EFA04FE22EA0E02C260C26891F807E00F
:101000000EFA0CFC42EA0C02C26001330F2B34D8FA
:1010100001229A400C68A243F7D104684FEA430CBE
:10102000032202FA0CF26FEA020E24EA02020260C4
:1010300002680C7904FA0CF4224302600A79013A3E
:10104000D2B2012ACDD882680EEA0202826082689A
:101050004C7904FA0CF42243826044689DB24FF04C
:10106000010E0EFA05FE24EA0E04446044688A79F3
:10107000AA4092B222434260B3E730BD7047018379
:1010800070474183704700B501F007039B0002FAE7
:1010900003FCC908083150F821204FF00F0E0EFA5A
:1010A00003F322EA030340F8213050F8212042EAFA
:1010B0000C0240F821205DF804FB000021B1054A34
:1010C000136B184310637047024A136B23EA000046
:1010D000106370470038024021B1054A136C184371
:1010E00010647047024A136C23EA000010647047D2
:1010F0000038024021B1054A536C184350647047D0
:10110000024A536C23EA00005064704700380240E2
:1011100021B1054A136A184310627047024A136AE4
:1011200023EA0000106270470038024021B1054AEE
:10113000536A184350627047024A536A23EA000018
:10114000506270470038024008B52A4B98420FD0D1
:10115000294B984217D0294B98421FD0284B9842D0
:1011600027D0284B98422FD0274B984237D008BD24
:1011700001214FF48050FFF7D9FF00214FF4805038
:10118000FFF7D4FFF3E701214FF48040FFF7C0FFE2
:1011900000214FF48040FFF7BBFFE8E701214FF447
:1011A0000040FFF7B5FF00214FF40040FFF7B0FF0C
:1011B000DDE701214FF40050FFF7B8FF00214FF4A5
:1011C0000050FFF7B3FFD2E701214FF48010FFF783
:1011D000ADFF00214FF48010FFF7A8FFC7E7012102
:1011E0004FF40010FFF7A2FF00214FF40010FFF7AB
:1011F0009DFFBCE70030014000380040003C00404B
:101200000034014000500140005401402DE9F041FC
:10121000038803F441520F88B1F802808E88CD888C
:101220000C89B1F80AE0B1F80CC0CB8947EA08078D
:101230003E4335432C434EEA040E4CEA0E0C43EA7F
:101240000C0313430380838B9BB223F400639BB294
:1012500083830B8A0382BDE8F08129B103889BB2A6
:1012600043F040030380704703889BB223F04003A0
:101270009BB203807047808980B27047818170473C
:1012800022B183889BB21943818070478388C94308
:1012900089B21940818070470389194201D0012029
:1012A000704700207047000010B401F00302920064
:1012B0000F2404FA02FC8908084B023153F821403C
:1012C00024EA0C0443F8214053F8214090400443A1
:1012D00043F821405DF8044B704700BF00380140DF
:1012E000028A83890B40114202D01BB9002070474B
:1012F0000020704701207047C94389B201827047BE
:1013000030B583B001214FF00070FFF7E5FE0121F9
:101310000846FFF7D3FE144C09220B212046FFF7A5
:10132000B2FE09220C212046FFF7ADFE4FF4805398
:10133000009302258DF804508DF8055000238DF898
:10134000063001238DF8073069462046FFF744FE3A
:101350004FF4006300938DF8045069462046FFF770
:101360003BFE03B030BD00BF0000024030B583B08B
:1013700001214FF08060FFF7AFFE01210220FFF74F
:101380009DFE134C092205212046FFF77CFE092211
:1013900006212046FFF777FE4023009302258DF8B3
:1013A00004508DF8055000238DF8063001238DF888
:1013B000073069462046FFF70FFE202300938DF883
:1013C000045069462046FFF707FE03B030BD00BF5A
:1013D0000004024010B584B001214FF00070FFF707
:1013E0007BFE134C2046FFF711FA01A8FFF738FBEC
:1013F00000238DF80A308DF80B308DF80C308DF805
:101400000D308DF80E308DF80F308DF806308DF8D8
:10141000073002238DF808308DF809300623ADF827
:10142000043001A92046FFF70DFA04B010BD00BF3B
:101430000064004010B584B001214FF00070FFF748
:101440004BFE01214FF08060FFF746FE124C204614
:10145000FFF7DCF901A8FFF703FB00238DF80A3042
:101460008DF80B308DF80C308DF80D308DF80E3076
:101470008DF80F308DF806308DF8073002238DF887
:1014800008308DF809300623ADF8043001A9204654
:10149000FFF7D8F904B010BD0068004000B583B074
:1014A0004FF4C060FFF776F914238DF80430002361
:1014B0008DF8053001238DF806308DF8073001A82E
:1014C000FFF772F903B05DF804FB00B583B04FF489
:1014D000C060FFF75FF940238DF8043000238DF8DA
:1014E000053001238DF806308DF8073001A8FFF78D
:1014F0005BF903B05DF804FB10B584B000238DF8F0
:101500000A308DF80B3001248DF80C40ADF8003016
:10151000ADF80230ADF80430ADF80630ADF8083063
:101520008DF80D406846FFF715FA22460221024861
:10153000FFF772FB04B010BD0064004010B584B02A
:101540000F238DF80A3000238DF80B3001248DF81D
:101550000C40ADF80030ADF80230ADF80430ADF815
:101560000630ADF808408DF80D406846FFF7F2F9F7
:10157000224610210248FFF74FFB04B010BD00BF08
:101580000068004008B5FFF7BBFEFFF723FFFFF739
:1015900085FFFFF7B1FF08BD08B5FFF7E7FEFFF7CE
:1015A00049FFFFF792FFFFF7C9FF08BD08B5034ADF
:1015B00000210348FFF7CFFA08BD00BFCC0100208F
:1015C0000064004008B5034A01210348FFF7C3FA4D
:1015D00008BD00BFF401002000680040F0B583B0F2
:1015E00001210220FFF76AFD4FF400430093012719
:1015F0008DF8047002248DF8054000268DF80660F1
:101600008DF80740124D69462846FFF7E5FC4FF478
:10161000804300938DF804708DF805408DF80660C6
:101620008DF8074069462846FFF7D6FC4FF4005373
:1016300000938DF804708DF805408DF806608DF8E4
:10164000074069462846FFF7C7FC03B0F0BD00BF5E
:1016500000040240024A136801331360704700BF60
:101660001C020020134B1B68134AA2FB03239B0C94
:10167000124A1360124BD3F8FC2022F08072C3F898
:10168000FC20D3F8FC2042F08072C3F8FC20A3F5C4
:101690005D431A6822F001021A601A6842F00102E2
:1016A0001A6000225A605A6800BF00BF5868801A4A
:1016B000704700BF6400002083DE1B4360000020F1
:1016C00000ED00E082B00023019300932A4A1368E2
:1016D00043F480331360284B1B6803F400330093FA
:1016E000019B01330193009B1BB9019BB3F5A04FF4
:1016F000F1D1214B1B6813F4003F06D00123009366
:10170000009B012B04D002B0704700230093F7E741
:10171000194B1A6C42F080521A6418490A6842F454
:1017200040420A609A689A609A6842F420429A603D
:101730009A6842F480529A60114A5A601A6842F0DC
:1017400080721A600C4B1B6813F0007FFAD00D4BAF
:1017500040F205721A60A3F580639A6822F00302D2
:101760009A609A6842F002029A60034B9B6803F009
:101770000C03082BF9D1C6E7003802400070004086
:10178000082A4007003C024010B5104CD4F88830BD
:1017900043F47003C4F888300D4B1A6842F001021C
:1017A0001A60002199601A6822F0847222F4803253
:1017B0001A60084A5A601A6822F480221A60D960B6
:1017C000FFF780FF4FF00063A36010BD00ED00E065
:1017D000003802401030002410B582B043098DF863
:1017E000043041EAC0008DF80500084C022301AA2C
:1017F0002146074890F9000003F0B2F8214651F85D
:10180000E4399BB2C1F8E43002B010BD840300207B
:1018100068000020802A00D97047F8B506460D46BA
:1018200014460C4F97F9000003F06EF80221304681
:10183000FFF7D2FFC4F18002E3B207490A44294608
:1018400097F9000003F08CF897F9000003F066F8B0
:10185000F8BD00BF6800002020020020F8B5074650
:101860000D461646094C94F9000003F04DF804218A
:101870003846FFF7B1FFF2B2294694F9000003F0B1
:1018800057F894F9000003F049F8F8BD680000200B
:1018900008B502F07FFF02F075FF02F0FBFF044B7A
:1018A00001221A60034BFF2283F87F2008BD00BF8E
:1018B000680000202002002010B5044602F004FF5A
:1018C00014F0040F05D100F09CFA204300F08CFACC
:1018D00010BD02F09FFE24F00404F4E710B50446A6
:1018E00002F02CFF14F0040F06D1E44300F089FA53
:1018F000204000F079FA10BD02F0C2FE24F004048A
:10190000F3E7000010B584B000238DF80F300122FA
:101910000DF10F0140F24110FFF77CFF9DF80F30F1
:1019200013F0040F02D1002004B010BD0023029375
:10193000042202A94FF41A60FFF76CFF01220DF197
:101940000F014FF41860FFF765FF9DF80F30012B72
:1019500001D00298E8E71E4C042221464FF41160A2
:10196000FFF758FF214651F8E039C1F8E030D1F8CF
:10197000E020184B1344019304220DEB02014FF4B5
:101980001960FFF76BFF01220DF10F0140F6811086
:10199000FFF740FF9DF80F3043F003038DF80F3041
:1019A00001220DF10F0140F68110FFF757FF0023D0
:1019B0008DF80F3006E001220DF10F0140F6811085
:1019C000FFF728FF9DF80F3013F0030FF3D0C0E7A7
:1019D00080030020B8BF23002DE9F04383B0044604
:1019E0000D4616461F46BDF82880A0F5B05189B2B5
:1019F000B1F5007F0DD3A0F5D0539BB2B3F5007FB6
:101A000007D341F61243984203D041F6134398425C
:101A100002D1B5EBD83F0FD80C4BD3F83C90B9F1BD
:101A2000000F10D0CDF800803B46324629462046B4
:101A3000C84703B0BDE8F083204602F0D7FD002878
:101A4000EAD00348F5E70020F3E700BFA00200203A
:101A50000300010608B5034B1B6C0BB1984708BD8A
:101A60000020FCE7A002002030B583B0054C646C78
:101A70002CB1BDF818500095A04703B030BD002030
:101A8000FBE700BFA002002008B5034B9B6C0BB125
:101A9000984708BD0020FCE7A002002008B5024BD3
:101AA0009B6B03B1984708BDA002002038B50A4BD4
:101AB0001B6D0BB1984738BD074D084C084AD5F847
:101AC000B010204602F01EFDB5F87A2021464FF4F2
:101AD000D050FFF7C3FEEEE7A0020020281400203C
:101AE000EC10002038B50A4BDB6C0BB1984738BDC1
:101AF000074D084CB5F8782021464FF4B050FFF759
:101B000089FE054AD5F8AC10204602F037FDEEE715
:101B1000A002002028120020900F0020BFF35B8F4E
:101B2000024BC3F8DC00BFF35B8F7047A0020020BC
:101B300010B5044610F0040F0DD114F0020F4ED171
:101B400014F0080F03D0434B5B6B03B1984714F0BC
:101B5000010F71D110BDBFF35B8F3F4B1B68BFF30B
:101B60005B8F002B0BDD3C4BBFF35B8F53E8002FEB
:101B7000013A43E800210029F8D1BFF35B8FBFF39E
:101B80005B8F354B1B68BFF35B8F002B13DDBFF3FF
:101B90005B8F304B93F8E930BFF35B8F13F0020F8C
:101BA000CBD12C4BD3F8DC20BFF35B8F2A4B1A60D0
:101BB000BFF35B8FC1E7BFF35B8F264B93F8E93030
:101BC000BFF35B8F13F0020FE1D0224BB3F87830F4
:101BD000002BDCD01B21142000F0C0FDADE7BFF3CB
:101BE0005B8F1C4B93F8E930BFF35B8F13F0020F50
:101BF00005D0184BD3F8E43013F4806F0ED1154B99
:101C0000D3F8E43013F4806F9AD0124BB3F87820F5
:101C100012494FF4B050FFF7FDFD91E7FFF762FF67
:101C20000C4BD3F8DC20BFF35B8F0B4B1A60BFF378
:101C30005B8FFEF7B7FB83E7BFF35B8F054B93F832
:101C4000E930BFF35B8F002B84D0FEF769FBFFF711
:101C50002DFF7FE7A0020020281600202812002078
:101C600010B50E4C042204F1E0014FF41160FFF7AF
:101C7000D1FDD4F8E030C4F8E03000F037FE00F0D9
:101C8000ABFD00F035FB20B9044BDB6D03B1984789
:101C900010BD02F059FB00F011FCF5E7A002002096
:101CA00008B5FFF7DDFF0F20FFF742FF08BD00007A
:101CB00010B504468268114B1A6000F0F1FF20460F
:101CC000FFF7E6FD05E002220D494FF48870FFF7AB
:101CD000A1FD0C4BB3F8863013F0010FF3D00120B7
:101CE00000F06EF8002000F037F800F0DBF900F0AB
:101CF000E5FC00F01DFD02F0CFFB10BD2816002012
:101D000026030020A002002010F0200F1FD0C3B235
:101D100000F00F0003281CD013F00C0F06D00B7836
:101D2000042B03D0082B01D00020704700B583B0EE
:101D300002220DF106014FF49A70FFF76BFDBDF81A
:101D40000600B0FA80F0400903B05DF804FB002003
:101D5000704700207047000000B583B0074BA3F820
:101D60008400ADF8060002220DF106014FF49A70CE
:101D7000FFF774FD03B05DF804FB00BFA002002074
:101D800000B583B00D4B5B6E6BB10DF1060098474B
:101D900010B10023ADF80630BDF8060050B90020A0
:101DA00003B05DF804FB02220DF106011220FFF7DB
:101DB00031FDF1E7FFF7D0FF2020F1E7A00200207E
:101DC00000B583B0074BA3F88000ADF806000222EF
:101DD0000DF106014FF49870FFF740FD03B05DF878
:101DE00004FB00BFA002002000B583B001900422D4
:101DF0000DEB02014FF40170FFF730FD03B05DF809
:101E000004FB00B583B004220DEB02014FF4017016
:101E1000FFF700FD019803B05DF804FB00B583B047
:101E2000C00001220DF1070100F60600FFF7F2FCE9
:101E300003B05DF804FB000008B500F11703054985
:101E400001EBC301C0000122093100F60500FFF7D4
:101E5000E1FC08BDA002002008B500F11703054908
:101E600001EBC301C00001220B3100F60700FFF7B0
:101E7000F5FC08BDA002002008B500F11702054BD3
:101E800003EBC203DA7A22F00102DA72FFF7E4FF11
:101E900008BD00BFA002002008B500F11702054BE5
:101EA00003EBC203DA7A42F00102DA72FFF7D4FFE1
:101EB00008BD00BFA002002008B502220249102080
:101EC000FFF7A8FC08BD00BF2803002000B583B0C1
:101ED00001220DF1070140F68110FFF79BFC9DF8F0
:101EE000070003B05DF804FB08B5FFF7EFFF10F043
:101EF000090F04D0064B1B6E43B1984705E0044B15
:101F0000002083F87C0083F8E80008BD3020FCE75F
:101F1000A002002038B505462B4C082221464FF47C
:101F20000060FFF777FC0822A11840F60800FFF7D1
:101F300071FC34F8BC19236F1A8891422CD1234AC2
:101F4000B2F8BE105A88914226D1204A92F8C02099
:101F50009B799A4220D11D4B93F8C23013F0010FA8
:101F60001AD01A4BB3F8C4105B6F1A8891421FD174
:101F7000164AB2F8C6105A88914219D1134A92F8FB
:101F8000C8209B799A4213D1104B93F8CA3013F0B2
:101F9000010F0DD028460AE001240C4B83F8B44011
:101FA0000020FFF779FF2046FFF776FF112038BDAC
:101FB000064B022283F8B4200020FFF76DFF0120BA
:101FC000FFF76AFF1120F2E75C030020A002002067
:101FD00010B50446174B4FF40072DA661A1D1A67E3
:101FE00003F10C025A670020FFF746FF0120FFF7BC
:101FF00043FF0020FFF720FF0120FFF71DFF2046D1
:10200000FFF788FF044610F0100F0BD1094B93F82F
:10201000CA20C2F3400283F8AA20012283F8682074
:10202000204610BD1620FFF797FE024B002283F8D2
:102030006820F5E7A002002010B50446184B4FF4C5
:102040000072DA6603F114021A6703F11C025A6780
:102050000020FFF711FF0120FFF70EFF0020FFF720
:10206000EBFE0120FFF7E8FE2046FFF753FF044692
:1020700010F0100F0BD10A4B93F8CA20C2F34002A4
:1020800083F8AA20012283F86820204610BD15207D
:10209000FFF762FE024B002283F86820F5E700BFDD
:1020A000A002002010B50024174B83F8684020469A
:1020B000FFF7F2FE0120FFF7EFFE204604E0134B8E
:1020C00000221A540130C0B20228F8D90E4B002267
:1020D00083F88C2083F88D2083F88E20012183F8EB
:1020E000901083F8AA2083F88B2083F89120C3F8FE
:1020F0009C20C3F8A02083F88F20A3F8A42083F8A5
:10210000A620A3F8A82010BDA00200208C0F00205C
:1021100030B583B0174C236F174D06222946188817
:10212000FFF778FB2B8898B2ADF80630226F538802
:10213000991F884201D9ADF8061010880630BDF805
:1021400006200E4980B2FFF765FBBDF80630063366
:10215000084A106F4288934204D3094B01221A7037
:1021600003B030BD01220DF106018088FFF752FB5C
:10217000F3E700BFA00200208C0900209209002094
:102180008C0F002010B582B0134AD36E03FB00F011
:10219000124BC11800248DF807401B5A506F42881B
:1021A000941FA34200D9A3B29C1DA2B20088FFF7DE
:1021B00055FB094B5B6F5A88944205D3064B0022AE
:1021C00083F8902002B010BD01220DF1070198881C
:1021D000FFF744FBF2E700BFA00200208C090020BB
:1021E00010B582B000238DF80730064C636F0122D2
:1021F0000DF107011888FFF731FB012384F89030B7
:1022000002B010BDA0020020022001E00138C0B2DF
:1022100018B11A4B1B5C002BF8D168B3174B022284
:102220001A541749CA6E174B02FB003391F88A20E3
:102230000132D2B281F88A2002F0070281F88A20A6
:102240001AB90A46012182F88A1000229A70DA70BF
:10225000197962F305011971C9B262F38711197115
:10226000074A92F88AC059796CF30711597192F8AC
:102270008F30013382F88F30704700BF8C0F002001
:10228000A00200208C090020022001E00138C0B229
:1022900018B1024B1B5C032BF8D170478C0F002048
:1022A00010B50446FFF7B0FFD0B101460D4BDA6E12
:1022B00000FB02F20C4813184FF0000C4FF0040E14
:1022C00002F800E083F801C05A796CF303025A71F6
:1022D00001229A7183F807C01C81044B03225A54CF
:1022E00010BD00BFA00200208C0900208C0F002030
:1022F0006F4B93F86800002800F0D88010B5D3F831
:10230000E43013F4407F2FD1694B93F88C1021B146
:10231000D3F8E43013F4007F2DD1654A92F8CA3027
:10232000C3F3400392F8AA20934259D0604BB3F80C
:102330008C30BBB1002942D15D4B93F88D00FFF783
:1023400021FF5B4B93F8CA20C2F340010A4683F891
:10235000AA1093F8CB1062F3410183F8CB1001204F
:10236000FFF77AFD002010BD0020FFF765FD01207A
:10237000FFF762FDC8E7FFF733FF4D4B93F88D3051
:1023800013B14C4A0021D154494B93F88C00494B6E
:102390001B5C062B10D0464B93F88C20454905203A
:1023A000885483F88D20002283F88C2093F88E00C7
:1023B0000028D8D00120D6E7FFF7E4FEEBE70120A4
:1023C000FFF76AFD3A4C94F88C303A4A0621D15412
:1023D0000120FFF751FD94F88D00FFF7D3FEB0E721
:1023E000334B93F88F3073B1314B93F890302BB956
:1023F0002F4B93F8C93013F0080F04D1FFF744FFB7
:102400000446002831D12A4B93F8C10010F008008F
:10241000A9D0284B1878002846D1254BD3F88C300A
:1024200013F0FF1F9FD1FFF773FE214B93F8C120DC
:102430006FF3C30283F8C1201F4B1B884BB31E4BA5
:102440005B7913F0F00F07D01B4B5A79184B93F8B8
:102450008B30B3EB121F23D0174B5B79C3F30313FD
:10246000134A82F88B3001207DE7FFF78BFE0120B5
:10247000FFF7E2FC0F4B04221A550D4B83F88C40FA
:1024800093F88F30002BBED0013B094A82F88F3081
:10249000B9E70520FFF704FF064B00221A70CEE7CC
:1024A000044B00221A70D7E700205CE7704700BF9A
:1024B000A00200208C0F00208C09002008B5104BD2
:1024C00093F868303BB10E4B93F88E301BB90D4B2F
:1024D0001B78012B00D008BD0B4B5B7913F00F0F5D
:1024E00002D0094B1B8833B90520FFF7D9FE054BF5
:1024F00000221A70EFE70220FFF7D2FEF7E700BFD5
:10250000A00200208C0F00208C09002038B5054661
:10251000384C082221464FF40160FFF77BF92388ED
:10252000B3F5B05F39D1A4F1CC0393F8D030242BAC
:1025300033D1314AB2F8CE30B2F87820934232D15A
:102540002D4991F8D21011F0010F00D18ABB03EB95
:102550004303B3F5806F32DC284C0822214640F655
:102560001800FFF757F92388B3F5D05F2DD1A4F1F8
:10257000D40393F8D830202B27D11F4BB3F8D620A3
:10258000B3F87A309A4226D11B4A92F8DA2012F038
:10259000010F2CD12BBB284604E0174B042283F8F3
:1025A000B420122038BD144B042283F8B42012202A
:1025B000F8E7114B042283F8B4201220F2E70E4B07
:1025C000042283F8B4201220ECE70B4B082283F896
:1025D000B4201220E6E7084B082283F8B42012202A
:1025E000E0E7054B082283F8B4201220DAE72846FA
:1025F000D8E700BF6C030020A00200207403002075
:1026000010B5FFF783FF0446122815D0294BB3F805
:102610007A306BB9BFF35B8F274B01221A70BFF37F
:102620005B8F244B1B680BB1122C19D1204610BDB7
:102630000320FFF721FCEDE70220FFF72DFC03202C
:10264000FFF72AFC1B4B93F8B43013F0080F03D0AC
:102650001E20FFF781FBE4E71D20FFF77DFBE0E78D
:10266000FFF742FC88B9134B5B6D002BDED0114A9B
:10267000B2F87820D2B94FF400600E4A92F87C206C
:102680000AB140F004009847D0E7FFF765FB02204D
:10269000FFF702FC0320FFF7FFFBBFF35B8F064B46
:1026A00000221A70BFF35B8F1224BFE74FF48060E3
:1026B000E3E700BFA00200208903002010B50C4C06
:1026C000BFF35B8F00232370BFF35B8F0320FFF703
:1026D000E3FB0220FFF7E0FB54F8E93C33B1A4F13F
:1026E000E9039B6D13B140F60440984710BD00BF4D
:1026F0008903002010B504460B4BB3F8783073B94A
:102700000A4BBFF35B8FD3E84F2F42F00202C3E8BE
:10271000412F0029F7D1BFF35B8F204610BD022067
:10272000FFF7AAFBECE700BFA0020020890300200E
:1027300008B5094BBFF35B8FD3E84F2F02F00102BE
:10274000C3E8412F0029F7D1BFF35B8F0220FFF7C9
:10275000A3FBFFF7A3F908BD8903002010F0080FC1
:1027600035D130B583B004460D46194AB2F88030F1
:1027700003F00F038DF806308DF8073043EA00139D
:102780008DF80630D36A23B10DF107010DF1060073
:102790009847BFF35B8F0F4B1B78BFF35B8F13F032
:1027A000020F11D12846FFF7D7FA2046FFF708FBA2
:1027B0008DF80740064B1B6B23B10DF107010DF19E
:1027C0000600984703B030BDFFF7B2FFEAE7704755
:1027D000A002002089030020F8B5424BD3F8E43072
:1027E00013F0100F34D03F4B93F8822002F01F05F6
:1027F00093F8803003F01F0412F0100F03D1012D65
:1028000001D0264603E002F00F0503F00F0613F097
:102810000E0F05D0032C03D0324B93F86830C3B9A8
:102820000020FFF7FBFA0120FFF7F8FA0220FFF77C
:10283000F5FA0320FFF7F2FA0420FFF7EFFA05207C
:10284000FFF7ECFA0620FFF7E9FA0720FFF7E6FAB0
:10285000F8BD2046FFF75EFB07462046FFF756FE11
:10286000044616F0100F02D015F0100FF0D0112F03
:102870001AD0BFF35B8F1C4B1B78BFF35B8F002B11
:10288000E6D0122CE4D1FFF753FFFFF717FF154BEB
:1028900093F8B43013F0080F1FD01E20FFF75CFA36
:1028A0002046FFF78DFAD3E7BFF35B8F0E4B1B7803
:1028B000BFF35B8F63B9FFF7F5FB1620FFF74CFA08
:1028C000084B002283F868203846FFF779FABFE703
:1028D000FFF72EFFFFF7F2FEEDE71D20FFF73CFAB2
:1028E000DEE700BFA002002089030020A34BD3F83D
:1028F000E43013F0010F00D1704730B583B0A04C25
:10290000022221464FF49070FEF784FF214611F811
:10291000822902F01F04B1F8803003F01F038DF804
:1029200006308DF8073012F0100F01D1012C05D1BF
:1029300002F00F0403F00F028DF807209DF8072026
:1029400012F0100F03D014F0100F00F0B88003F055
:102950000F0343EA04138DF80630884BDB6A23B17A
:102960000DF107010DF1060098479DF80630854AE4
:102970001370113B772B00F25D81DFE813F07F00CD
:10298000C200C800BA005B015B015B01B0005B01E3
:102990005B015B015B015B015B015B015B0178003B
:1029A0007F00CE002A015B015B015B0122015B011C
:1029B0005B015B015B015B015B015B015B01A200F1
:1029C000CE00A20030015B015B015B013D015B01B8
:1029D0005B015B015B015B015B015B015B01AA00C9
:1029E000D500CE00D5005B015B015B0155015B01A9
:1029F0005B015B015B015B015B015B015B015B01F7
:102A00005B015B015B015B015B015B015B015B01E6
:102A10005B015B015B015B015B015B015B015B01D6
:102A20005B015B015B015B015B015B015B015B01C6
:102A30005B015B015B015B015B015B015B015B01B6
:102A40005B015B015B015B015B015B015B015B01A6
:102A50005B015B015B015B015B015B015B01AA0048
:102A60001B01CE0037015B015B015B017F00FFF7BB
:102A700023FA2046FFF7ACFA8DF807003F4B1B6B9B
:102A800023B10DF107010DF1060098479DF80730BD
:102A900013F0100F05D1394BB3F88430002B40F000
:102AA000F0800DF10701354BB3F88200FFF72CF9E8
:102AB000002840F0EA809DF80700FFF781F903B095
:102AC00030BDFFF7F9F92046FFF7B6FA8DF8070099
:102AD000D4E711208DF80700FFF73EF9CEE7FFF7A6
:102AE00027FEFFF7EBFDFFF7DDFA01238DF8073036
:102AF000C4E7FFF7E3FDFFF7D5FA01238DF80730B0
:102B0000BCE7FFF7CFFA01238DF80730B6E7FFF7F0
:102B1000C9FA01238DF80730B0E712238DF807308A
:102B20001120FFF719F9A9E7174D1D23174A294668
:102B300041F6124001F044FB25F8340CAC3DD5F8C9
:102B4000AC30002B28DB124D1A23124A294641F6DD
:102B5000134001F035FB25F8360CB03DD5F8B03008
:102B6000002B20DB2046FFF74BFD8DF80700A0422D
:102B700084D10220FFF780F980E700BFA002002087
:102B8000220300202C1600204C030020900F002070
:102B900050030020EC10002012238DF807301D2078
:102BA000FFF7DAF86AE712238DF807301E20FFF7E7
:102BB000D3F863E712238DF807301120FFF7CCF824
:102BC0005CE7FFF7B5FDFFF779FD02238DF80730CD
:102BD00054E7FFF773FD02238DF807304EE7142307
:102BE0008DF807301120FFF7B7F847E72046FFF7C9
:102BF00081FD8DF8070041E714238DF8073011207F
:102C0000FFF7AAF8FFF794FD244BB3F87830002BB8
:102C10007FF434AF214BB3F87A30002B3FF42EAF62
:102C20000320FFF739F929E704238DF80730FFF770
:102C30007FFD23E79DF80730082B0DD09DF8063067
:102C4000042B1BD09DF8073043F010038DF807309C
:102C50001220FFF781F811E7FFF76AFD0F4BB3F879
:102C600078301BB90D4BB3F87A301BB904238DF8BB
:102C70000730E3E70320FFF70FF9F7E7FFF71EFD43
:102C8000E0E70020FFF768F80BE7FFF779F89DF819
:102C9000073018438DF807000DE700BFA0020020A1
:102CA00002464168204B19608168C3F8DC101F4957
:102CB00003F1040C03C98CE803001D4903F10C0C5B
:102CC00003C98CE803001B4903F1140C03C98CE809
:102CD0000300194903F11C0C03C98CE80300117BA4
:102CE00083F82410116999625169D9629169196355
:102CF000D1695963116A9963516AD963916A1964F8
:102D0000D16A5964116B9964516BD964916B1965DF
:102D1000D16B5965116C9965516CD965916C1966C7
:102D2000D26C5A66704700BFA002002024720008CF
:102D30002C720008347200083C72000800B54FF095
:102D40000A0CA0F800C090F805C04FF0030E6EF317
:102D5000030C80F805C00903C1800272A0F8093095
:102D60009DF80430C3725DF804FB2DE9F0418D0934
:102D700001F03F03402A43D04FF0010EA2F12001A1
:102D8000C2F120040EFA01F12EFA04F421430EFAE6
:102D900002FE1EF1FF3E41F1FF3800EBC5046468FE
:102DA000C3F12007A3F1200650F8351021FA03FCE7
:102DB00004FA07F74CEA070C24FA06F64CEA060C6C
:102DC000DC401A44402A1FD9013500EBC50250F8F7
:102DD00035005268C3F14006C3F12005203BB240E4
:102DE00000FA05F52A4320FA03F31A43B04040EAFB
:102DF0000C0022430EEA000008EA0201BDE8F0815F
:102E00004FF0FF3EF046C8E700200246EFE72DE90D
:102E1000F04F83B00C9C0D9F8E0901F03F01402ABA
:102E20007AD00123A2F1200EC2F1200503FA0EFE92
:102E300023FA05F54EEA050E9340013B4EF1FF3EA5
:102E4000A1F1200CC1F120050EFA01F803FA0CFCE7
:102E500048EA0C0823FA05F548EA050803FA01F5E3
:102E60000195A1F1200AC1F1200907FA01FC04FA39
:102E70000AFA4CEA0A0C24FA09F94CEA090C04FA99
:102E800001F900EBC60A50F836B089EA0B09DAF806
:102E900004508CEA050C019D09EA05090CEA080CAE
:102EA00089EA0B09DAF804508CEA050540F83690F7
:102EB000CAF804500A44402A2BD9C1F14002A1F1BA
:102EC0002005C1F12001D3400EFA05F52B432EFA5F
:102ED00001F10B432EFA02FEC2F12005A2F12001FE
:102EE000D44007FA05F52C4327FA01F10C43D740EB
:102EF000013600EBC60550F836106A684C40574062
:102F00001C4007EA0E0E4C4082EA0E0240F83640A2
:102F10006A6003B0BDE8F08F4FF0FF339E468FE745
:102F200041880139362929D8DFE801F01C1C1F220D
:102F30001C1F222228282828282828282528282835
:102F40002528282828282528282828282828282807
:102F500028282828282828281C1F221C1C1C1C1C48
:102F60001C1C1C0003691A70704703691A807047A3
:102F700003691A60704701690A604B60704700007E
:102F800070B5FFF741F9002859D086462C49CB6E21
:102F900003FB00FC2B4C0CEB04025379032060F381
:102FA000030353714FF40043D380137A022060F37C
:102FB00006031372D1F89C30D1F8A0001B1A9BB203
:102FC000496F4E880E3EC6F34E0613FB06F39EB2C3
:102FD000012813D9137A43F08003137249880E39FC
:102FE000C1F34E01314489B2002353720138144BAE
:102FF000C3F8A00050810C32334613E0137A6FF30C
:10300000C71313720021104B19700D4B83F88E10EB
:10301000B3F89810E8E718010C4D285A22F8020B73
:1030200001339BB28B42F6D38B1B9BB25B009BB2EE
:10303000063324F80C30044B032203F80E2070BD35
:10304000A00200208C0900208C0F00208C68000852
:1030500038B50446FFF7D8F840B301461448C26EAD
:1030600001FB02F2134D53194FF00A0C22F805C070
:103070005A794FF0030C6CF303025A714FF400427B
:10308000DA801A7A072565F306021A72D2B26FF354
:10309000C7121A7200225A725A819C81240CDC8158
:1030A000054B03F801C01A7080F88E2038BD00BFB0
:1030B000A00200208C0900208C0F0020F8B500240D
:1030C00001E00134A4B22301464AD25A4FF6FF73FD
:1030D0009A42F6D1444BA3F898405B6F5D880E3D51
:1030E00025F001052D042D0C05EB44010139B1FB40
:1030F000F5F53E4B9B89012B03D93D48FFF7A8FF0F
:10310000F8BDFFF781F884460028F9D0364BD86E19
:1031100000FB0CF0354E83195A79032161F3030249
:103120005A714FF40042DA801A7A022161F30602E2
:103130001A72B289BAB99A81197A62F3C7111972EF
:103140005A725A812B490A70274981F88E20C1F89A
:103150009C506F1EC1F8A070DC811A825A829A823C
:10316000DA8212228253214A9289012A04D0214B09
:10317000032203F80C20C3E7012D19D91A7A42F073
:1031800080021A72184A132182F88E10526F5488E6
:103190000E3CC4F34E0400225A72134FC7F89C50E1
:1031A000013DC7F8A0505D81012199810E3311E0E6
:1031B0001A7A6FF3C7121A7200220E490A700A496E
:1031C00081F88E20E7E71101064D695A23F8021BAA
:1031D000013292B2A242F6D363009BB2083333525B
:1031E000C5E700BF8C680008A00200208C09002001
:1031F000000001068C0F0020F8B50E4615461F464C
:10320000044600B3F4B1124BD86E04FB00F0114B2E
:1032100000EB030C0A22C2529CF80520032363F33F
:1032200003028CF805204FF40052ACF80620ACF8ED
:1032300009608CF80B5080228CF80820CCF80C70B8
:10324000054A1355F8BDFEF7DFFF0446DAE700BF75
:10325000A00200208C0900208C0F002008B533B993
:103260000023044A1370044A82F88E3008BDFFF729
:10327000C3FFF5E78C0F0020A002002008B50B4625
:103280000146184601F008FC08BD00002DE9F04792
:1032900082B0FEF7B9FF40B90023394A1370394AAA
:1032A00082F88E3002B0BDE8F0870646354FFB6EDF
:1032B00003FB00F8344D08EB0509D7F8A0A0D7F8B8
:1032C0009C40A4EB0A042A7AEB7A0093B5F8093003
:1032D00002F0100203214846FFF730FDE11CFB6EAF
:1032E0009A1F914219D9A3F10904D7F8A0302344B9
:1032F000C7F8A030E31C25F80830224DD5F894001B
:10330000224609F109015044FFF7B8FF95F89130C2
:103310001BB31B4B03229A55BEE71A4B002283F8BE
:103320009120C3F89C20C3F8A02099F8083043F0FE
:10333000010389F80830062C03D9E31C25F808306E
:10334000DBE7C4F10702D2B25200D2B2134389F8CC
:1033500008300A2328F80530CFE70B4BB5F8A82032
:10336000D97AB3F80900FEF78FFB03460028D0D0C6
:103370000549CA7AB1F809103046FFF76FFF91E7A7
:103380008C0F0020A00200208C0900202DE9F84FAE
:103390001F469DF828B0DDF82C804388093B9BB27E
:1033A000022B40F2A08081468A461446BBF1000FF2
:1033B00002D10FB100237B70002649E003F10C011C
:1033C00055E0F01DEA1DD20807EBD00001F064FBC8
:1033D00032E01CF0080F01D0022B09D01CF0100FB6
:1033E00001D0042B04D01CF0200F25D0082B23D1B2
:1033F000F11DEA1DD20807EBD10101F04DFB1BE0E6
:10340000BBF1000F18D1BFB10120A84001381CF05A
:10341000010F01D0022B56D01CF0020F01D0042B5B
:1034200051D01CF0040F01D0082B4CD09040F30871
:10343000FA5C22EA0000F85404B910252E44013445
:1034400024B2B8F1000F03D0F31DB8EBD30F4BD962
:10345000274B03EB0A131B799C4245DC04EB8403E6
:1034600009EB83039D8818690028A7D0014606F060
:10347000070293F806C01F4B93F8803003F00F0348
:1034800015F0070FBCD10AB1B61A0836002FD3D0F9
:10349000BBF1000F9DD11CF0010F01D0022B90D089
:1034A0001CF0020F01D0042B8BD01CF0040F01D0B4
:1034B000082B86D0F01DEA1DD208002107EBD000B2
:1034C00001F0F8FAB8E722B9F3084FF0000C07F85A
:1034D00003C00B78034003FA02F2F308D2B2F95C9E
:1034E0000A43FA54A8E7044E3046BDE8F88F00BFFF
:1034F0008C680008A00200200400010608B543887B
:10350000013B362B2DD8DFE803F01C1C20241C20A7
:1035100024242C2C2C2C2C2C2C2C282C2C2C282C03
:103520002C2C2C2C282C2C2C2C2C2C2C2C2C2C2CDF
:103530002C2C2C2C2C2C1C20241C1C1C1C1C1C1C5F
:103540001C0003691878002108BD03691888002150
:10355000FAE7036918680021F6E7036918685968F3
:10356000F2E7034B034A40F28B61034801F040FA53
:1035700044720008907200084872000810B4144B9E
:1035800003EB0010C46890F804C08C4508D301EB2D
:10359000810334F823208BB29A420ED0002000E041
:1035A000002000EB800334F823208BB29A4206D22D
:1035B000604504DA013000B2F3E708B201E09A4254
:1035C00002D15DF8044B70474FF0FF30F9E700BFC0
:1035D0008C6800080146002000E001300301044A25
:1035E000D35A8B42F9D300D170474FF0FF30FBE73D
:1035F0008C68000838B51D46B0F809300B80C37AD6
:103600001370012B0FD814460888FFF7E3FF2860DA
:1036100000280ADB2178FFF7B1FF049B18800028FF
:1036200005DB002038BD0348FCE70348FAE7034800
:10363000F8E700BF000001060000020611000906BD
:103640002DE9F04F87B00DF10E03009304AB0DF19F
:1036500015020DF116017648FFF7CCFF002840F067
:10366000A180FEF7D1FD0646002800F0A68004994F
:10367000704B03EB0113DD68002301930093BDF948
:103680000E202846FFF782FE0290182800F29E8046
:10369000441EE408C4F10304E4B2A400E4B2073019
:1036A000C3080293B3F5803F80F092801E33B3F5D8
:1036B000C06F00F29580EB882A6943F400430093C1
:1036C00002AB9DF81510BDF81600FEF7CDF90346C4
:1036D000002840F08E80584F4FF0000ACDF804A02B
:1036E000CDF800A03B46BDF90E2004992846FFF70F
:1036F0004DFE57F87E3C03FB06F8DFF834B108EBCB
:103700000B099DF815300093BDF8163051220321A6
:103710004846FFF713FB07F859ACEA3F029A042A20
:103720006FD9C9F80C2002F10A034449C96E881FF9
:10373000834211D9414BC3F89C2010390291C3F840
:10374000A010402283F8912003F1EA02C3F89420EC
:103750004FF40042A3F8A820029A02F10A032BF8C2
:103760000830354909F1100001F096F9334B93F810
:1037700091305BB9EA8842F400429DF81510BDF81B
:103780001600FEF781F90346002848D12C4B03228E
:103790009A5500239DF81520BDF816103046FFF706
:1037A0005DFD07E003469DF81520BDF816100020CA
:1037B000FFF754FD07B0BDE8F08F00239DF81520FA
:1037C000BDF816101846FFF749FDF3E7002466E739
:1037D0009DF81520BDF816103046FFF73FFDE9E7CC
:1037E000184B9DF81520BDF816103046FFF736FD32
:1037F000E0E79DF81520BDF816103046FFF72EFDC6
:10380000D8E799F808301C4344F0020489F80840CE
:1038100007F1EA0109F10C0001F03EF9A6E79DF875
:103820001520BDF816103046FFF718FDC2E700BF9F
:103830008C0900208C6800088A030020A002002068
:103840008C0F00200400010670B586B00DF10E0348
:10385000009304AB0DF115020DF116016948FFF755
:10386000C9FE002866D1674B1C7A14F0020F6AD09B
:10387000C4F38104C4F1040403F10C050499624B00
:1038800003EB0113DE680023019301220092BDF9CE
:103890000E203046FFF77AFD0730C308B0F5002F41
:1038A00056D29C4200F28F80F28842F4004200928D
:1038B0002A469DF81510BDF81600FEF78DF8034650
:1038C00000284DD104F10A03504AD26E911F8B4259
:1038D00057D904F11E03B3F5C06F49D84B4BC3F859
:1038E0009C40103AC3F8A020502183F8911003F1B6
:1038F000EA015018C3F89400BDF81600A3F8A4001C
:103900009DF8150083F8A6004FF40040A3F8A80026
:103910002846FFF7B3FCFEF777FC044600285BD18E
:1039200000239DF81520BDF816102046FFF796FCE1
:1039300006B070BD03469DF81520BDF81610002096
:10394000FFF78CFCF4E72F4DEC68A4B2103595E737
:103950009DF81520BDF816100020FFF77FFCE7E763
:103960009DF81520BDF816100020FFF777FCDFE763
:10397000274B9DF81520BDF816100020FFF76EFCB0
:10398000D6E7224B002283F8912001940123009373
:103990002B46BDF90E2004993046FFF7F7FCF2885C
:1039A00042F400429DF81510BDF81600FEF752F8DB
:1039B00003460028AFD09DF81520BDF81610002052
:1039C000FFF74CFCB4E7134B9DF81520BDF816101B
:1039D0000020FFF743FCABE70C4BDB6E094D03FB0C
:1039E00000559DF815300093BDF816307022032164
:1039F0002846FFF7A3F90023EB60074B03221A5573
:103A00008EE700BF8C0900208C680008A00200200F
:103A100004000106100007068C0F00202DE9F04F6E
:103A200085B07C4BB3F80960B5B2DF7A2846FFF762
:103A3000D1FD041EC0F2DE8039462046FFF79EFD10
:103A40000028C0F2D080744B03EB0414E46800EB50
:103A5000800004EB8004A279704B93F8803003F06F
:103A60000F0312F0010F01D0022B10D012F0020F41
:103A700001D0042B0BD012F0040F01D0082B06D07C
:103A8000674B3A4629460020FFF7E8FBBEE0FEF709
:103A9000BBFB8246002800F0B380604BDB6E03FB6B
:103AA00000F9DFF870B109EB0B080A2329F80B3095
:103AB00098F80530032262F3030388F805304FF4C9
:103AC0004053A8F80630A3880393082B33D80C2260
:103AD000102B00D90422182B00D90022A8F8096065
:103AE00088F80B70412188F808100733DB0803932E
:103AF000042B30D842F0430288F808202269E2B152
:103B0000E388009303AB39462846FDF7ADFF064630
:103B1000D0B92069A0B1039A08F10C01FFF7AEFB00
:103B200026B93E4B93F89130002B4ED03D4B0322EB
:103B300003F80A2064E00822CAE704F10C02DFE778
:103B4000E368C8F80C30EBE703463A46294650468E
:103B5000FFF784FB5AE02269E388009303AB394600
:103B60002846FDF781FF064640BB039B2B4AC2F85F
:103B70009C30C8F80C300A33D26E911F8B4218D992
:103B8000103A0392254BC3F8A020402283F89120DD
:103B90002269C3F89420E288A3F8A820039A02F1CE
:103BA0000A032BF8093008F110012069FFF766FBC2
:103BB000B6E71A4B002283F89120EFE703463A4616
:103BC00029465046FFF74AFB20E0E288394628465E
:103BD000FDF75AFF03460028A8D03A46294650462A
:103BE000FFF73CFB12E0104B3A4629460020FFF756
:103BF00003FB05E00D4B3A4629460020FFF7FCFA8F
:103C00000023084A1370054A82F88E3005B0BDE8DB
:103C1000F08F00BF8C0900208C680008A0020020F3
:103C2000010001068C0F00201100090600000206A9
:103C30002DE9F04383B07C4BB3F80970BDB2DE7A56
:103C40002846FFF7C7FC041EC0F2DF80314620463D
:103C5000FFF794FC0028C0F2D180744B03EB0414EE
:103C6000E46800EB800004EB8004A37903F03F01DB
:103C70006F4A92F8802002F00F0213F0080F01D073
:103C8000022A13D013F0100F01D0042A0ED013F023
:103C9000200F01D0082A09D0072900F0A880654B21
:103CA000324629460020FFF7A7FAB4E05E4B93F8AE
:103CB000088018F0020F29D0C8F38108C8F1040861
:103CC00003F10C09A3880733DA08B8EBD30F2CD023
:103CD0006388092B22D0A3F10A0292B2012A24D9C7
:103CE000B3F5187F21D040F2612293421DD040F2FB
:103CF0006222934219D040F26322934215D04E4B78
:103D0000324629460020FFF7A9FA8AE0464BD3F84D
:103D10000C801FFA88F803F11009D3E72069A2EBA1
:103D200008020021404400F0C5FEE38800934346AA
:103D30004A4631462846FDF74FFE0346002850D13B
:103D4000B8F1040F15D9384B1B880A3B434510D2F4
:103D5000374A502182F8911021691944C2F8941011
:103D6000A2F8A47082F8A660E188A2F8A81098468C
:103D700003E02F4B002283F89120424621694846F8
:103D8000FFF77CFAFEF740FA8046C8B1284BDA6E9E
:103D900002FB00F2244953180A2050525979032299
:103DA00062F3030159714FF44051D980A3F80970AF
:103DB000DE72602119720021D960204B03F80820BF
:103DC0001B4B93F8913033BBE28831462846FDF710
:103DD00041FE0346F8B1324629464046FFF70CFA49
:103DE00019E0324629460020FFF706FA13E0144B8B
:103DF000324629460020FFF7FFF90CE0114B32460E
:103E000029460020FFF7F8F905E00F4B3246294616
:103E10000020FFF7F1F90023084A1370044A82F8E2
:103E20008E3003B0BDE8F0838C0900208C68000858
:103E3000A002002022000008100007068C0F0020BE
:103E40000200010611000906000002062DE9F041FA
:103E500082B0FEF7D9F9002800F08C8006464A4B64
:103E6000D86E4A4B00FB06301B88DC1E0A2B5BD049
:103E7000464D2A7A02F010020023009342F02002FD
:103E80000321FEF75BFF22463F4BD3F8941005F168
:103E90000900FFF7F3F92B7A13F0010F5CD03A4BCE
:103EA000B3F8A830B3F5004F23D1374BD3F89C506B
:103EB000D3F8A0301C44A5423DD8334FB7F8A480B6
:103EC0004046FFF787FB044697F8A6703946FFF790
:103ED00055FB0246002C38DB002836DB2C4800EB73
:103EE00004100195012300932A4B2146C068FFF777
:103EF0004DFA254B002283F89120C3F89C20C3F88B
:103F0000A020B3F8A82093F8A610B3F8A400FDF7FA
:103F1000A1FD034658B31C4991F8A620B1F8A4109E
:103F20003046FFF79BF92BE0184B1C7A6FEA5404DC
:103F300004F007049CE71449174B91F8A620B1F848
:103F4000A4100020FFF78AF91AE0144B3A464146C4
:103F50000020FFF783F913E00B4BD3F894202244A1
:103F6000C3F89420D3F8A0202244C3F8A0200C4B1F
:103F700003229A5500231A4619461846FFF76EF990
:103F800002B0BDE8F08100BFA00200208C09002033
:103F90008C6800088A030020100007060000020653
:103FA0008C0F00202DE9F843444BB3F80C901FFA16
:103FB00089F0FFF70FFBB0F100087ADBFEF724F978
:103FC0000546002878D03E4BDC6E00FB04F43B4EE7
:103FD000A7197B79032262F303037B714FF400433B
:103FE000FB803B7A042262F306033B72DBB26FF381
:103FF000C7133B7200237B727B81A7F80C90314B77
:1040000003EB0813B3F80290B9F1070F15D0B9F11B
:10401000080F23D00023FB812A4B03EB0813DB6836
:104020001B7B3B7487F81190264800EB0810D0F8F2
:1040300008C007F11201002327E000214046FFF7E6
:104040009DFA204B03EB0813DA6800EB800002EBCB
:1040500080004288FA811B793B74E3E700214046E7
:10406000FFF78CFA174B03EB0813DB6800EB8000BB
:1040700003EB80004288FA811B7B3B74D2E701F896
:10408000010B0133DBB20CF1010C9CF8000020B1F4
:104090000B4AD26E123A9342F1D308700C33A353F9
:1040A000094A0323535500231370054A82F88E30C2
:1040B00002E00648FEF7CCFFBDE8F8838C0900203B
:1040C000A00200208C6800088C0F0020000002066F
:1040D0002DE9F041344B9D899E7BA8B2FFF77AFA17
:1040E000071E5CDB31463846FFF748FA041E51DBF9
:1040F0002E4800EB0710C768FEF786F886460028B2
:104100004BD02B4BDB6E03FB00FC27480CEB000273
:104110005379032161F303035371002393716FF00B
:104120007F01D171117A4FF0060868F30601117210
:10413000C9B263F3C711117253729372D37295812E
:1041400096730721D17304EB840407EB8407798805
:104150001182B9885182F9889182BD6816322C7813
:1041600054B11349C96E16398B4205D202F8014B7E
:104170000133DBB20135F2E7147010332CF8003054
:104180000C4A032302F80E3000231370084A82F809
:104190008E3002E00848FEF75BFFBDE8F08107487B
:1041A000FEF756FFF9E700BF8C0900208C68000875
:1041B000A00200208C0F002011000906000002065A
:1041C0002DE9F04F87B0059101929B46A0F5E05391
:1041D000123B9BB2012B00F2AE80FFF7FBF90028E7
:1041E000C0F2AD80574B03EB0010C36804931B690A
:1041F0009BB11B780393039B002B40F092804FF000
:1042000000084746BBF1000F40F39180059BC3F8BF
:104210000080F81DC0F3CF008EE0049B1B7B03934E
:10422000E9E798896CE09AF80C30009377E0DE6853
:1042300036E04FF0FF33059A136000207CE0FFF773
:10424000C9F9051E41DB49462846FFF797F90028C2
:1042500035DB3C4B03EB0513DB6800EB800003EB25
:10426000800008EB4803019901EB830241F8230029
:10427000002830D0334B03EB0513536008F10108DD
:10428000976057FA86F70134E4B2009B9C4225D828
:1042900004EB84030AEB83031A69002AC7D016686B
:1042A000BBF1000FEDDD300CC6F30729D845C0D0B7
:1042B0000028C4D1B9F1000FC1D10020D1E74FF0DF
:1042C000FF33059A1360002036E04FF0FF33059A64
:1042D0001360002030E000235360CFE7029B0133DE
:1042E000DBB20293029B039A93428BD8029B03EBAF
:1042F0008303049A02EB83031A69002A91D0108881
:10430000FFF768F9051EE9DB0E4B03EB0513D3F845
:104310000CA0DAF81030002B85D01B780093012414
:10432000B3E74FF00008012302934746DAE7002382
:10433000059A13606DE7002007B0BDE8F08F0020FC
:10434000FAE700BF8C68000808B54F4B93F8683057
:10435000A3B14D4B93F88E301BB94C4B1B78012BFE
:104360000DD0494BD3F88C3003F0FF13B3F5981FF1
:1043700018D0454B93F88E30032B16D008BD444B14
:104380005B7903F00F03032BEBD1414B1B88072B09
:1043900004D93D4B032283F88E20E2E70820FDF785
:1043A0007FFFDEE7FEF7ECFDE3E7394BDB881B0B15
:1043B000022B11D0082B42D0082B49D0082B50D00B
:1043C000002B57D10520FDF76BFF00232F4A1370F8
:1043D0002D4A82F88E30D1E72D4B1A7A02F0E00395
:1043E000402B0AD002F0EF01602913D0202B1DD002
:1043F000002BC3D1FFF72AFDC0E7254909880A2908
:10440000F0D112F0100F02D0FFF71AF9B6E7FFF75C
:1044100005FBB3E71E4909880A29E7D11A4991F833
:1044200091104029E2D1FEF731FFA7E712F0100FFB
:1044300002D0FFF709FAA1E7FFF7FAFB9EE7144A5B
:10444000127A02F07F02012AB6D1FEF737FE95E715
:104450000F4A127A02F07F02032AAFD1FFF7A2FDC2
:104460008CE70B4A127A02F07F02052AA8D1FFF7E7
:104470002FFE83E70649074BCA7AB1F809100020DE
:10448000FEF7BAFEA1E700BFA00200208C0F0020BB
:104490008C09002000000106184B93F8243063BB00
:1044A0002DE9F0414FF0000812E0C2680023FEF74A
:1044B00037FD0134725BBBB29A4207D204EB84032E
:1044C0009D0070190369002BEFD1F2E708F1010894
:1044D0004FEA08130A4AD25A4FF6FF739A4206D09F
:1044E000074B03EB0813DE681F790024E6E7034B54
:1044F0009B6A03B19847BDE8F0817047A002002095
:104500008C6800082DE9F04383B010F0070F04D148
:1045100080460F461646002410E0154B154A4FF40E
:10452000E061154800F064FAFEF7E8FFCDE900010C
:104530002A4649464046FEF76AFC0134BC4214DA7A
:1045400004EB440306EB830256F82300D2F80890EC
:104550000028F2D08588402DE6D9EA1DD2080169ED
:1045600008EBD90000F098FAE7E703B0BDE8F08364
:1045700060720008A0720008487200082DE9F0413E
:1045800010F0070F04D180460F46164600240FE0B6
:10459000134B144A40F22F71134800F029FA404699
:1045A000FEF7E3FB02460B462846FEF7B9FC013452
:1045B000BC4213DA04EB440306EB830256F82350A3
:1045C0009168002DF3D0AA88402AE8D90732D20892
:1045D00008EBD101286900F05FFAE8E7BDE8F08157
:1045E00060720008807200084872000808B5FEF783
:1045F000F1FFB0F1FF3F09D0054B03EB0010C2689B
:1046000013690BB1187808BD107BFCE70020FAE7AE
:104610008C68000830B587B001210846FCF74EFDD4
:1046200001214FF48040FCF765FD00248DF80C401B
:104630008DF80F400125029502A91048FCF7CCFC2B
:1046400021462046FCF730FE04958DF814400C23DB
:104650008DF815308DF8165004A8FCF765FC06237C
:104660008DF804300F238DF805308DF806308DF865
:10467000075001A8FCF798F807B030BD00000240D1
:1046800010B584B001214FF48040FCF733FD0123C5
:10469000029300248DF80C400C238DF80D308DF81A
:1046A0000E4002A8FCF740FC06238DF804300F23CF
:1046B0008DF805308DF806308DF8074001A8FCF71D
:1046C00073F804B010BD000010B586B00121084693
:1046D000FCF7F4FC01214FF48040FCF70BFD0024B3
:1046E0008DF80C408DF80F404FF48073029302A9AF
:1046F0001148FCF771FC05212046FCF7D5FD20236D
:1047000004938DF814400C238DF8153001248DF896
:10471000164004A8FCF708FC17238DF804300F237B
:104720008DF805308DF806308DF8074001A8FCF7AC
:104730003BF806B010BD00BF0000024010B584B0C9
:1047400001214FF48040FCF7D5FC20230293002484
:104750008DF80C400C238DF80D308DF80E4002A81A
:10476000FCF7E2FB17238DF804300F238DF805309A
:104770008DF806308DF8074001A8FCF715F804B055
:1047800010BD000008B504210148FCF778FC08BD05
:104790000000024000B583B001210846FCF78EFC02
:1047A0000423009301238DF8043002228DF80520A4
:1047B00000228DF806208DF8073069460348FCF783
:1047C0000BFCFFF7DFFF03B05DF804FB00000240C5
:1047D000F0B583B001210846FCF770FC01210220EE
:1047E000FCF76CFC01210420FCF768FC274F052234
:1047F0000A213846FCF747FC254E052202213046A7
:10480000FCF741FC052203213046FCF73CFC4FF449
:104810008063009302248DF804408DF80540002544
:104820008DF806508DF8074069463846FCF7D4FBF2
:10483000042300938DF804408DF805408DF8065050
:104840008DF8074069463046FCF7C6FB0823009305
:104850008DF804408DF805408DF806508DF807401E
:1048600069463046FCF7B8FB4FF480730093012390
:104870008DF804308DF805408DF806508DF807301E
:1048800069463846FCF7A8FB03B0F0BD00040240BF
:104890000008024010B586B0FFF79AFF01214FF4DF
:1048A0008040FCF719FC174C2046FCF74DFC002318
:1048B000ADF80430ADF808300222ADF80A2001222C
:1048C000ADF80C204FF40072ADF80E20ADF81030AA
:1048D000ADF812300723ADF814304FF48273ADF801
:1048E000063001A92046FCF791FC02210548FCF79F
:1048F000D3FC0028F9D001210248FCF7AEFC06B039
:1049000010BD00BF0038004008B54FF48071024868
:10491000FCF7B7FB08BD00BF0004024008B54FF428
:1049200080710248FCF7ABFB08BD00BF00040240E9
:1049300070B50E4615460024A5420EDD315D0748D0
:10494000FCF79CFC01210548FCF7A6FC0028F9D0E7
:104950000248FCF790FC0134EEE770BD00380040DF
:104960002DE9F041884617461E460024A64211DD77
:1049700008EB0405395D0848FCF780FC0121064876
:10498000FCF78AFC0028F9D00348FCF774FC287077
:104990000134EBE7BDE8F08100380040DFF834D0A7
:1049A0000D480E490E4A002302E0D458C450043387
:1049B000C4188C42F9D30B4A0B4C002301E013605E
:1049C0000432A242FBD3FCF7DFFE00F041F8FBF714
:1049D0003FFD70470000022000000020D0000020B2
:1049E00088730008D000002040160020FEE7000079
:1049F0001FB514461A46094B1B680546D8684CB1CA
:104A0000074B0091CDE9013406492B4600F00EF822
:104A100000F006FC044B1C46F3E700BF6C000020CE
:104A2000AC720008B9720008E77200080EB403B552
:104A3000014603AB054853F8042B0068019300F0CE
:104A40006BF802B05DF804EB03B070476C00002017
:104A500070B50D4D0D4C641BA4100026A64209D163
:104A60000B4D0C4C01F040F8641BA4100026A6422C
:104A700005D170BD55F8043B98470136EEE755F86F
:104A8000043B98470136F2E7807300088073000802
:104A900080730008847300080A44914200F1FF33D8
:104AA00000D1704710B511F8014B03F8014F914246
:104AB000F9D110BD02440346934200D1704703F878
:104AC000011BF9E79368013B002B10B4936008DAEF
:104AD0009469A34201DB0A2903D15DF8044B00F07D
:104AE000DFBA1368581C1060197008465DF8044B53
:104AF0007047F8B506460F461446D518AC4201D1AA
:104B0000002007E014F8011B3A463046FFF7DAFFB1
:104B1000431CF3D1F8BD00002DE9F04F0D469DB0C8
:104B200014469846064618B183690BB900F09AFC02
:104B3000894B9D421BD175686B6ED90705D4AB8933
:104B40009A0502D4A86D00F02BFDAB891B0701D597
:104B50002B69EBB92946304600F0F4FAC0B16B6E10
:104B6000DC070ED54FF0FF301DB0BDE8F08F7B4B5A
:104B70009D4201D1B568DFE7794B9D4208BFF568DA
:104B8000DAE7AB899805EDD4A86D00F00AFDE9E7F6
:104B90000023099320238DF82930CDF80C80302391
:104BA000DFF8C0818DF82A304FF0010923469A467C
:104BB00013F8012B0AB1252AF9D1BAEB040B0BD05B
:104BC0005B46224629463046FFF793FF013000F04E
:104BD000AA80099A5A4409929AF80030002B00F0F2
:104BE000A28000234FF0FF32CDE905230AF1010A2C
:104BF000049307938DF853301A935446052214F802
:104C0000011B5848FBF7E4FA049AD8B9D10644BF0F
:104C100020238DF85330130744BF2B238DF85330D6
:104C20009AF800302A2B15D0079A544600204FF0EE
:104C30000A0C214611F8013B303B092B4ED9B0B18B
:104C4000079214E0A0EB080309FA03F3134304935B
:104C5000A246D2E7039B191D1B680391002BBBBF23
:104C60005B4242F0020207930793B8BF0492237895
:104C70002E2B0CD163782A2B35D1039B1A1D1B6870
:104C80000392002BB8BF4FF0FF3302340593DFF8D7
:104C9000E4A0217803225046FBF79AFA40B1402362
:104CA000A0EB0A0003FA00F0049B034301340493D1
:104CB00014F8011B2C488DF828100622FBF788FAFF
:104CC00000283FD0294B1BBB039B073323F007036E
:104CD00008330393099B3B44099367E70CFB0232BB
:104CE0000C460120A5E700230134059319464FF037
:104CF0000A0C204610F8012B303A092A03D9002B60
:104D0000C5D00591C3E70CFB012104460123F0E760
:104D100003AB00932A46164B04A93046AFF300803C
:104D20000746781CD6D16B6ED90705D4AB899A0596
:104D300002D4A86D00F035FCAB895B063FF512AFDD
:104D4000099811E703AB00932A46094B04A93046A2
:104D500000F080F8E4E700BF4073000860730008CB
:104D600020730008EC720008F672000800000000D2
:104D7000F34A0008F27200082DE9F04716469946FA
:104D80008A680B69DDF820809342B8BF1346336010
:104D900091F8432007460C460AB10133336023687B
:104DA000990642BF336802333360256815F0060563
:104DB00006D104F1190AE36832689B1AAB4226DC7B
:104DC00094F84320131E226818BF012392062BD4A7
:104DD00004F1430249463846C04701301ED02368DB
:104DE000E568326803F00603042B08BFAD1AA36818
:104DF00022690CBF25EAE57500259342C4BF9B1AC2
:104E0000ED1800261A34B5421AD1002008E001231B
:104E1000524649463846C047013003D14FF0FF3073
:104E2000BDE8F0870135C6E7E1185A1C302081F84B
:104E30004300224494F8451082F843100233C7E738
:104E40000123224649463846C0470130E6D00136A4
:104E5000D9E700002DE9FF470F7E0C9D782F914682
:104E600080460C469A4601F1430207D8622F0AD8C1
:104E7000002F00F0D880582F00F0A38004F14205E5
:104E800084F842703AE0A7F16303152BF6D801A12C
:104E900051F823F0ED4E0008014F00087D4E000848
:104EA0007D4E00087D4E00087D4E0008014F000831
:104EB0007D4E00087D4E00087D4E00087D4E0008A6
:104EC0000D500008314F0008EF4F00087D4E0008DC
:104ED0007D4E00082F5000087D4E0008314F00081D
:104EE0007D4E00087D4E0008F74F00082B681A1D04
:104EF0001B682A6004F1420584F842300123A3E0D4
:104F000020682968060601F104030AD50E682B60A3
:104F1000002E03DA2D23764284F843305E480A23BC
:104F200019E00E682B6010F0400F18BF36B2EFE7A3
:104F30002B682068191D2960010601D51E6802E052
:104F40004606FBD51E8854486F2F0CBF08230A2342
:104F5000002184F843106568A560002DA2BF216878
:104F600021F0040121600EB9002D4DD01546B6FB8D
:104F7000F3F103FB1167C75D05F8017D3746BB42BE
:104F80000E46F4D9082B0BD12368DE0708D5236918
:104F900061689942DEBF302305F8013C05F1FF3519
:104FA000521B2261CDF800A04B4603AA2146404681
:104FB000FFF7E2FE01304CD14FF0FF3004B0BDE806
:104FC000F087354881F845702968236851F8046BEB
:104FD00029601D0614D5DF0744BF43F0200323607A
:104FE0001EB9236823F0200323601023B0E7236851
:104FF00043F0200323607823284884F84530E3E712
:10500000590648BFB6B2E6E71546BBE72B682668E7
:105010006169181D286035061B6801D5196002E01A
:105020007006FBD51980002323611546BAE72B686B
:105030001A1D2A601D68626800212846FBF7C8F81F
:1050400008B1401B606063682361002384F843302B
:10505000A8E723692A4649464046D0470130ABD0ED
:1050600023689B0713D4E068039B9842B8BF184697
:10507000A4E70123324649464046D04701309BD041
:105080000135E36803995B1AAB42F2DCEBE70025DC
:1050900004F11906F5E700BFFD7200080E73000861
:1050A000F8B50E461446054618B183690BB900F0F1
:1050B000D9F9214B9C422BD16C68A369A360A389C9
:1050C0001A072FD523696BB323692068C01A636957
:1050D000F6B28342374604DC2146284600F02EF91A
:1050E00030BBA368013BA36023685A1C22601E707A
:1050F00063690130834204D0A389DB0706D50A2EF9
:1051000004D12146284600F019F988B93846F8BD7F
:105110000A4B9C4201D1AC68CFE7094B9C4208BFC7
:10512000EC68CAE72146284600F00CF80028CBD0EE
:105130004FF0FF37EAE700BF4073000860730008D4
:1051400020730008324B70B51D6806460C4625B129
:10515000AB6913B9284600F085F92E4B9C420FD15C
:105160006C68A389B4F90C2019072CD4DD0611D47E
:105170000923336042F04003A3814FF0FF303EE04B
:10518000254B9C4201D1AC68EBE7244B9C4208BF05
:10519000EC68E6E7580712D5616B41B104F14403AE
:1051A000994202D0304600F063FA00236363A3897A
:1051B00023F02403A3810023636023692360A38970
:1051C00043F00803A38123694BB9A38903F4207337
:1051D000B3F5007F03D02146304600F009FAA089DC
:1051E000B4F90C2010F001030AD00023A360636916
:1051F0005B42A361236943B910F08000BAD170BD4E
:10520000810758BF6369A360F4E70020F7E700BF98
:105210006C000020407300086073000820730008D1
:1052200008B5062000F03CFB012000F05BFC00000C
:105230008A892DE9F041054610070C4658D44B6881
:10524000002B05DC0B6C002B02DC0020BDE8F0819C
:10525000E66A002EF9D0002312F480522F682B60EA
:1052600032D0606DA3895A0705D56368C01A636B95
:105270000BB1236CC01A00230246E66A216A284655
:10528000B047431CA38906D129681D292CD82A4A76
:10529000CA40D60728D500226260D904226922605C
:1052A00004D5421C01D12B6803B96065616B2F6086
:1052B0000029CAD004F14403994202D0284600F0E4
:1052C000D7F900206063C1E7216A01232846B0476F
:1052D000411CC7D12B68002BC4D01D2B01D0162B2D
:1052E00001D12F60B1E7A38943F04003A381ADE76B
:1052F0000F69002FA9D093070E6808BF4B690F6094
:1053000018BF0023A6EB07088B60B8F1000F9CDDE7
:10531000216AA66A43463A462846B047002806DC7A
:10532000A38943F04003A3814FF0FF308EE7074489
:10533000A8EB0008E9E700BF0100402038B50B6981
:1053400005460C4613B90025284638BD18B18369B7
:105350000BB900F087F8144B9C421BD16C68B4F970
:105360000C30002BEFD0626ED00704D4990502D424
:10537000A06D00F015F928462146FFF759FF636E2E
:10538000DA070546E0D4A3899B05DDD4A06D00F0C3
:1053900008F9D9E7054B9C4201D1AC68DFE7044B23
:1053A0009C4208BFEC68DAE74073000860730008AD
:1053B00020730008002310B50446C0E90033C0E99B
:1053C0000433836081814366C28183611946082268
:1053D0005C30FFF76FFB054B6362054BA362054B27
:1053E000E362054B2462236310BD00BFD958000857
:1053F000FB5800083359000857590008014900F0CC
:10540000AFB800BF3D53000870B568224D1E55432C
:105410000E4605F1740100F097F9044640B10021F1
:10542000C0E900160C30A06005F16802FFF742FBEE
:10543000204670BD014800F0B3B800BF2E16002012
:10544000014800F0AEB800BF2E160020014800F061
:10545000A7B800BF2F160020014800F0A2B800BF77
:105460002F16002010B50446FFF7F0FFA3691BB10B
:10547000BDE81040FFF7F0BFC4E912332365134BBA
:10548000134A1B68A262A34204BF0123A361204602
:1054900000F020F86060204600F01CF8A060204674
:1054A00000F018F80022E06004216068FFF782FF36
:1054B000A06801220921FFF77DFFE0680222122186
:1054C000FFF778FF0123A361D2E700BFE87200086D
:1054D000FD530008F8B50746FFF7ACFF1E4B1E68EA
:1054E000B36913B93046FFF7BDFF4836D6E901343A
:1054F000013B03D533680BB33668F7E7B4F90C50BA
:10550000D5B9164BE36004F15800656600F047F822
:10551000FFF796FFC4E90155C4E904552560A5616C
:105520000822294604F15C00FFF7C4FAC4E90D55CE
:10553000C4E912552046F8BD6834D9E7042138463D
:10554000FFF762FF044630600028D5D1FFF778FFEF
:105550000C233B60EEE700BFE87200080100FFFF8C
:105560002DE9F8430646884600F148040027D4E9AF
:105570000195B9F1010905D52468002CF7D1384609
:10558000BDE8F883AB89012B07D9B5F90E3001339B
:1055900003D029463046C04707436835E9E77047DE
:1055A0007047704770B50E46B1F90E10002996B0DD
:1055B00014461D4608DAB6F90C3000222A601A0695
:1055C00010D44FF480630EE06A4600F0EBF9002837
:1055D000F1DB019A02F47042A2F500535A425A419B
:1055E0002A60EEE740230020236016B070BD000063
:1055F0008B8973B59D0706460C4607D504F1470312
:10560000236023610123636102B070BD01AB6A4670
:10561000FFF7C8FF00990546304600F095F848B9F5
:10562000B4F90C309A05EFD423F0030343F00203DE
:10563000A381E3E70D4BB362A389206043F08003AD
:10564000A381009B6361019B20615BB1B4F90E10E3
:10565000304600F0B9F928B1A38923F0030343F0E1
:105660000103A381A0890543A581CDE7FD5300086F
:1056700037B5002944D051F8043C0190002BA1F12A
:105680000404B8BFE41800F0C1F91E4A0198136879
:1056900033B96360146003B0BDE8304000F0BCB9BA
:1056A000A34208D9256861198B4201BF19685B685C
:1056B00049192160EDE71A465B680BB1A342FAD99C
:1056C00011685518A5420BD1246821445418A342EF
:1056D0001160E0D11C685B68536021441160DAE717
:1056E00002D90C230360D6E7256861198B4204BFF9
:1056F00019685B68636004BF491921605460CAE798
:1057000003B030BD3016002070B50E4E0C46316827
:10571000054611B900F08CF830602146284600F0AB
:1057200087F8431C0AD0C41C24F00304A04207D00D
:10573000211A284600F07CF8013001D14FF0FF34E7
:10574000204670BD341600202DE9F041CD1C25F017
:10575000030508350C2D38BF0C25002D074601DB4D
:10576000A94205D90C233B6000263046BDE8F081F4
:105770002E4E00F04BF933681C4634BB29463846A0
:10578000FFF7C2FF431C04464DD134682646002E65
:1057900040D123683146384604EB030800F048F84E
:1057A00080453AD1216803356D1A25F00305083587
:1057B0000C2D38BF0C2529463846FFF7A5FF0130D0
:1057C0002BD023682B4423600EE02268521B1ED48A
:1057D0000B2A16D96119A342256018BF5960636866
:1057E00008BF316062514B60384604F10B0600F08F
:1057F00013F926F00706231DF21AB6D09B1BA350FF
:10580000B3E76268A3420CBF32605A60ECE72346FC
:105810006468B2E734467668B9E70C233B603846E3
:1058200000F0FAF8A1E72560DEE700BF301600209F
:1058300038B5064D0023044608462B6000F03CF9BD
:10584000431C02D12B6803B1236038BD38160020F9
:105850001F2938B504460D4604D9162303604FF0BE
:10586000FF3038BD426C12B152F821304BB920469E
:1058700000F030F82A4601462046BDE8384000F0E6
:1058800017B8012B0AD0591C03D11623036001203D
:10589000E7E7002442F82540284698470020E0E743
:1058A000024B01461868FFF7D3BF00BF6C00002011
:1058B00038B5074D00230446084611462B6000F01A
:1058C000E3F8431C02D12B6803B1236038BD00BF4D
:1058D0003816002000F0C8B810B50C46B1F90E100B
:1058E00000F0A0F80028ABBF636DA3891B1823F458
:1058F0008053ACBF6365A38110BD2DE9F0411F4605
:105900008B89DB0505460C46164605D5B1F90E1008
:105910000223002200F068F8A389B4F90E1023F4E2
:105920008053A38132463B462846BDE8F04100F053
:1059300017B810B50C46B1F90E1000F055F8431C1D
:10594000A38915BF606523F4805343F48053A3817A
:1059500018BFA38110BDB1F90E1000F013B80000FC
:1059600038B5074D04460846114600222A601A46FB
:1059700000F0B0F8431C02D12B6803B1236038BD9E
:105980003816002038B5064D0023044608462B6023
:1059900000F05AF8431C02D12B6803B1236038BDD4
:1059A0003816002038B5074D002304460846114636
:1059B0002B6000F051F8431C02D12B6803B1236027
:1059C00038BD00BF3816002038B5064D0023044608
:1059D00008462B6000F050F8431C02D12B6803B13D
:1059E000236038BD3816002038B5074D04460846F8
:1059F000114600222A601A4600F04EF8431C02D1DC
:105A00002B6803B1236038BD381600200148FFF72A
:105A1000C7BD00BF2D1600200148FFF7C2BD00BF63
:105A20002D16002038B5074D0446084611460022C1
:105A30002A601A4600F038F8431C02D12B6803B1E3
:105A4000236038BD38160020024B58221A604FF0F0
:105A5000FF30704738160020024B58221A604FF072
:105A6000FF30704738160020024B58221A604FF062
:105A7000FF30704738160020024B58221A60002071
:105A8000704700BF38160020024B58221A604FF0B2
:105A9000FF30704738160020024B58221A604FF032
:105AA000FF30704738160020024B58221A604FF022
:105AB000FF30704738160020044A05491368002B50
:105AC00008BF0B4618441060184670473C1600206B
:105AD00040160020024B58221A604FF0FF307047EA
